{
  "contractName": "ERC20Token",
  "abi": [
    {
      "inputs": [],
      "name": "decimals",
      "outputs": [
        {
          "internalType": "uint256",
          "name": "",
          "type": "uint256"
        }
      ],
      "stateMutability": "view",
      "type": "function"
    },
    {
      "inputs": [],
      "name": "name",
      "outputs": [
        {
          "internalType": "string",
          "name": "",
          "type": "string"
        }
      ],
      "stateMutability": "view",
      "type": "function"
    },
    {
      "inputs": [],
      "name": "symbol",
      "outputs": [
        {
          "internalType": "string",
          "name": "",
          "type": "string"
        }
      ],
      "stateMutability": "view",
      "type": "function"
    },
    {
      "inputs": [],
      "name": "totalSupply",
      "outputs": [
        {
          "internalType": "uint256",
          "name": "",
          "type": "uint256"
        }
      ],
      "stateMutability": "view",
      "type": "function"
    },
    {
      "inputs": [
        {
          "internalType": "address",
          "name": "_to",
          "type": "address"
        },
        {
          "internalType": "uint256",
          "name": "_value",
          "type": "uint256"
        }
      ],
      "name": "transfer",
      "outputs": [
        {
          "internalType": "bool",
          "name": "success",
          "type": "bool"
        }
      ],
      "stateMutability": "nonpayable",
      "type": "function"
    },
    {
      "inputs": [
        {
          "internalType": "address",
          "name": "_spender",
          "type": "address"
        },
        {
          "internalType": "uint256",
          "name": "_value",
          "type": "uint256"
        }
      ],
      "name": "approve",
      "outputs": [
        {
          "internalType": "bool",
          "name": "success",
          "type": "bool"
        }
      ],
      "stateMutability": "nonpayable",
      "type": "function"
    },
    {
      "inputs": [
        {
          "internalType": "address",
          "name": "_from",
          "type": "address"
        },
        {
          "internalType": "address",
          "name": "_to",
          "type": "address"
        },
        {
          "internalType": "uint256",
          "name": "_value",
          "type": "uint256"
        }
      ],
      "name": "transferFrom",
      "outputs": [
        {
          "internalType": "bool",
          "name": "success",
          "type": "bool"
        }
      ],
      "stateMutability": "nonpayable",
      "type": "function"
    }
  ],
  "bytecode": "0x60806040526040518060400160405280600381526020017f58595a00000000000000000000000000000000000000000000000000000000008152506000908051906020019061004f9291906100b3565b506040518060400160405280600381526020017f58595a00000000000000000000000000000000000000000000000000000000008152506001908051906020019061009b9291906100b3565b5060126002553480156100ad57600080fd5b506101b7565b8280546100bf90610156565b90600052602060002090601f0160209004810192826100e15760008555610128565b82601f106100fa57805160ff1916838001178555610128565b82800160010185558215610128579182015b8281111561012757825182559160200191906001019061010c565b5b5090506101359190610139565b5090565b5b8082111561015257600081600090555060010161013a565b5090565b6000600282049050600182168061016e57607f821691505b6020821081141561018257610181610188565b5b50919050565b7f4e487b7100000000000000000000000000000000000000000000000000000000600052602260045260246000fd5b61059c806101c66000396000f3fe608060405234801561001057600080fd5b506004361061007d5760003560e01c806323b872dd1161005b57806323b872dd146100ee578063313ce5671461011e57806395d89b411461013c578063a9059cbb1461015a5761007d565b806306fdde0314610082578063095ea7b3146100a057806318160ddd146100d0575b600080fd5b61008a61018a565b60405161009791906103f2565b60405180910390f35b6100ba60048036038101906100b59190610344565b610218565b6040516100c791906103d7565b60405180910390f35b6100d8610220565b6040516100e59190610414565b60405180910390f35b610108600480360381019061010391906102f5565b610226565b60405161011591906103d7565b60405180910390f35b61012661022f565b6040516101339190610414565b60405180910390f35b610144610235565b60405161015191906103f2565b60405180910390f35b610174600480360381019061016f9190610344565b6102c3565b60405161018191906103d7565b60405180910390f35b60008054610197906104c6565b80601f01602080910402602001604051908101604052809291908181526020018280546101c3906104c6565b80156102105780601f106101e557610100808354040283529160200191610210565b820191906000526020600020905b8154815290600101906020018083116101f357829003601f168201915b505050505081565b600092915050565b60035481565b60009392505050565b60025481565b60018054610242906104c6565b80601f016020809104026020016040519081016040528092919081815260200182805461026e906104c6565b80156102bb5780601f10610290576101008083540402835291602001916102bb565b820191906000526020600020905b81548152906001019060200180831161029e57829003601f168201915b505050505081565b600092915050565b6000813590506102da81610538565b92915050565b6000813590506102ef8161054f565b92915050565b60008060006060848603121561030a57600080fd5b6000610318868287016102cb565b9350506020610329868287016102cb565b925050604061033a868287016102e0565b9150509250925092565b6000806040838503121561035757600080fd5b6000610365858286016102cb565b9250506020610376858286016102e0565b9150509250929050565b6103898161045d565b82525050565b600061039a8261042f565b6103a4818561043a565b93506103b4818560208601610493565b6103bd81610527565b840191505092915050565b6103d181610489565b82525050565b60006020820190506103ec6000830184610380565b92915050565b6000602082019050818103600083015261040c818461038f565b905092915050565b600060208201905061042960008301846103c8565b92915050565b600081519050919050565b600082825260208201905092915050565b600061045682610469565b9050919050565b60008115159050919050565b600073ffffffffffffffffffffffffffffffffffffffff82169050919050565b6000819050919050565b60005b838110156104b1578082015181840152602081019050610496565b838111156104c0576000848401525b50505050565b600060028204905060018216806104de57607f821691505b602082108114156104f2576104f16104f8565b5b50919050565b7f4e487b7100000000000000000000000000000000000000000000000000000000600052602260045260246000fd5b6000601f19601f8301169050919050565b6105418161044b565b811461054c57600080fd5b50565b61055881610489565b811461056357600080fd5b5056fea26469706673582212206a52a1557b1aa22de43f2379f01afc19aacf79ea1a89a3d178b1b4862bba809064736f6c63430008000033",
  "immutableReferences": {},
  "source": "// SPDX-License-Identifier: MIT\npragma solidity 0.8.0;\n\n\ncontract ERC20Token {\n\n// As per the EIP20 documentation these are some of the funcations we need to implement for a ERC 20 Standard\n  string public name = \"XYZ\"; \n  string public symbol = \"XYZ\";\n  uint256 public decimals = 18;\n  uint256 public totalSupply;\n\n  function transfer(address _to, uint256 _value) public returns (bool success) {}\n\n  function approve(address _spender, uint256 _value) public returns (bool success) {}\n\n  function transferFrom(address _from, address _to, uint256 _value) public returns (bool success) {}\n}\n",
  "sourcePath": "/Users/sanjaya-panigrahi/Desktop/BlockChain/blockchain-developer-bootcamp-final-project/src/contracts/ERC20Token.sol",
  "compiler": {
    "name": "solc",
    "version": "0.8.0+commit.c7dfd78e.Emscripten.clang"
  },
  "schemaVersion": "3.4.3",
  "updatedAt": "2021-11-29T15:23:19.398Z",
  "devdoc": {
    "kind": "dev",
    "methods": {},
    "version": 1
  },
  "userdoc": {
    "kind": "user",
    "methods": {},
    "version": 1
  }
}